:100000000C9434000C943E000C943E000C943E0082
:100010000C943E000C943E000C943E000C943E0068
:100020000C943E000C943E000C943E000C943E0058
:100030000C943E000C943E000C943E000C943E0048
:100040000C943E000C943E000C943E000C943E0038
:100050000C943E000C943E000C943E000C943E0028
:100060000C943E000C943E0011241FBECFEFD8E04C
:10007000DEBFCDBF0E9440000C9463000C940000D2
:1000800083E084B98CEF85B984E08AB993B183B1F8
:10009000827031E020E090FF12C0811112C0832FE6
:1000A000922F2BB1880F991F880F991F822B8BB924
:1000B00093B183B1827031E020E090FDEECF8111E9
:0A00C000EECF30E0ECCFF894FFCF54
:00000001FF
